:020000040800F2
:10000000C806002089010008A30C00089F0C000806
:10001000A10C0008CF020008210E0008000000001B
:10002000000000000000000000000000A70C000815
:10003000D102000800000000A50C0008A90C00086F
:10004000A3010008A3010008A3010008A301000800
:10005000A3010008A3010008A3010008A3010008F0
:10006000A3010008A3010008A3010008A3010008E0
:10007000A3010008A3010008A3010008A3010008D0
:10008000A3010008A3010008A3010008A3010008C0
:10009000A3010008A3010008A3010008A3010008B0
:1000A000A3010008A3010008A3010008A3010008A0
:1000B000A3010008A3010008A3010008A301000890
:1000C000A3010008A3010008A3010008A301000880
:1000D000A3010008A3010008A3010008A301000870
:1000E000A3010008A3010008A301000800F002F822
:1000F00000F03AF80AA090E8000C82448344AAF188
:100100000107DA4501D100F02FF8AFF2090EBAE885
:100110000F0013F0010F18BFFB1A43F0010318473B
:10012000AC0D0000CC0D0000103A24BF78C878C197
:10013000FAD8520724BF30C830C144BF04680C60ED
:10014000704700000023002400250026103A28BF35
:1001500078C1FBD8520728BF30C148BF0B60704739
:100160001FB51FBD10B510BD00F077F81146FFF7A1
:10017000F7FF00F067FE00F095F803B4FFF7F2FF19
:1001800003BC00F09DF8000009488047094800477B
:10019000FEE7FEE7FEE7FEE7FEE7FEE7FEE7FEE737
:1001A000FEE7FEE704480549054A064B7047000094
:1001B000010D0008ED000008C8000020C80600205E
:1001C000C8020020C802002010B5431C02E010F84D
:1001D000011B71B18107FAD14FF0013202C88C1AAC
:1001E0008C4314EAC211F9D0C01A0A0603D0C01E0B
:1001F00010BDC01A10BD0A0401D0801E10BD090236
:10020000FCD0401E10BD4FF0000200B513469446CE
:100210009646203922BFA0E80C50A0E80C50B1F15E
:100220002001BFF4F7AF090728BFA0E80C5048BF72
:100230000CC05DF804EB890028BF40F8042B08BF10
:10024000704748BF20F8022B11F0804F18BF00F80C
:10025000012B7047704770477047754600F02CF8C7
:10026000AE4605006946534620F00700854618B0A3
:1002700020B5FFF797FFBDE820404FF000064FF094
:1002800000074FF000084FF0000B21F00701AC46CB
:10029000ACE8C009ACE8C009ACE8C009ACE8C009EA
:1002A0008D46704710B50446AFF300802046BDE888
:1002B0001040FFF762BF0000004870476400002054
:1002C00001491820ABBEFEE7260002007047FEE79A
:1002D0007047000070B5044600F0FEF80546601C4B
:1002E00002D004480078044400F0F6F8401BA04215
:1002F000FAD370BD100000202DE9F84FDFF8B89157
:10030000002409F1040A0AF1040B23460F270BF11C
:10031000040EC9E00125A5402A40AA427DD1674EBE
:10032000D1F804C0ACEB0608B44532D014DCBCF103
:10033000030F3AD009DCBCF1000F2AD0BCF1010F49
:100340001CD0BCF1020F31D11DE0BCF1110F17D050
:10035000BCF1120F2AD119E0B8F5881F19D006DCBC
:10036000B8F5803F15D0B8F5801F1FD111E0B8F562
:10037000001F0ED0B8F5041F18D10AE0CB6815E0B5
:10038000CB681B1D12E0CB6808330FE0CB680C3341
:100390000CE08B682BB1012B4FF0080303D04561B3
:1003A00004E0042302E0056100E00023FF2A01D8F5
:1003B000064601E000F104064FEA840501D9A5F1E3
:1003C0002005D6F8008007FA05FC28EA0C0803FA95
:1003D00005F548EA0508C6F800804D68ED0062D5CD
:1003E000374DAE6946F00106AE61AD6924F00306F3
:1003F00005F001050095334D06EB050CDCF80850BF
:10040000A607360F07FA06F825EA0805DFF8B880D0
:10041000404503D14FF0000817E044E0DFF8AC801E
:10042000404502D14FF001080FE0DFF8A4804045BD
:1004300002D14FF0020808E0DFF89880404502D171
:100440004FF0030801E04FF0040808FA06F848EA04
:100450000508CCF808804D68D9F80060ED034D46DA
:1004600001D5164300E096432E604D68DAF800602F
:10047000AD03554601D5164300E096432E604D6806
:10048000DBF80060ED025D4601D5164300E09643BF
:100490002E604D68DEF80060AD02754601D516434A
:1004A00000E096432E60641C0D682A46E5407FF408
:1004B00031AFBDE8F88F00000004014000001110CA
:1004C000001002400000014000080140000C014003
:1004D000001001400014014001488068704700008E
:1004E0001000002002488168027811448160704742
:1004F00010000020074810B5016841F010010160AC
:10050000032000F067F8002000F006F800F024F85F
:10051000002010BD0020024070B50D4D04464FF480
:100520007A712878B1FBF0F00A490968B1FBF0F064
:1005300000F0DEFA48B9102C07D200222146501EE6
:1005400000F028F800206C6070BD012070BD000034
:10055000100000201C0000200C4808B5816941F003
:1005600001018161816901F001010091C16941F0DE
:100570008051C161C06900F080500090044841681A
:1005800021F0E06141F08061416008BD001002404F
:1005900000000140F0B40E4B1B680C46C3F302236D
:1005A000C3F10705042D00D90425191D072901D21F
:1005B000002300E0DB1E012606FA05F1491E21405A
:1005C00099409E40761E16403143F0BC00F029BC95
:1005D0000CED00E0064900F0070208684FF6FF0343
:1005E000184040EA0220034A1043086070470000A8
:1005F0000CED00E00000FA052DE9F0470F4605007C
:1006000061D0434E306800F00700B84209D230682C
:1006100020F0070038433060306800F00700B8422F
:1006200051D128683B4C810712D5400703D560683B
:1006300040F4E06060602878000703D5606840F40B
:10064000605060606068A96820F0F0000843606056
:100650002878C00728D06868012810D021680228AF
:1006600010D0890700292EDA616821F003010143C7
:100670006160FFF731FF804641F288390DE0216863
:100680008903EFE78901EDE7FFF726FFA0EB0801FB
:10069000494502D90320BDE8F0876068696800F029
:1006A0000C00B0EB810FEFD1306800F00700B842CA
:1006B0000BD9306820F0070038433060306800F014
:1006C0000700B84201D00120E5E72878400705D5AA
:1006D0006068E96820F4E0600843606028780007FB
:1006E00006D56068296920F4605040EAC100606066
:1006F00000F038F86168084AC1F30311515CC84042
:100700000649086006480068FFF706FF0020C2E7B8
:100710000020024000100240B40E00081C0000201F
:10072000140000200448054900684968044AC1F3E0
:100730000221515CC84070471C000020001002409C
:10074000C40E00080448054900684968044AC1F31A
:10075000C221515CC84070471C00002000100240BC
:10076000C40E000812A185B00FC98DE80F0014A0B7
:10077000144A006804905168134801F00C03042BDC
:1007800010D0082B0ED1C1F38343C9031DF8030019
:100790000AD5516804AAC1F34041515C0A4A50434A
:1007A000B0FBF1F005B0704708494843FAE7000094
:1007B00002030405060708090A0B0C0D0E0F1010A2
:1007C000010200000010024000127A0000093D0002
:1007D0002DE9F84F040070D02078C04DC00749D0F3
:1007E0006868C0F38100012807D06868C0F3810001
:1007F000022809D16868C00306D52868800339D566
:1008000060680028E7D035E06068B0F5803F0BD025
:1008100010B1B0F5A02F11D0286820F480302860E6
:10082000286820F4802002E0286840F480302860A6
:10083000606890B1FFF750FE06460AE0286840F471
:1008400080202860F0E700BFFFF746FE801B642889
:1008500073D828688003F7D50CE0FFF73DFE064605
:1008600005E000BFFFF738FE801B6428F0D8286839
:100870008003F7D420789A4E80074FF001094FF09B
:10088000000839D5686810F00C0F07D06868C0F30D
:100890008100022809D16868C00306D4286880074F
:1008A00014D52069012808D110E02069B0B1C6F83C
:1008B0000090FFF711FE074605E00AE1FFF70CFE86
:1008C000C01B0228C4D828688007F7D5286861694A
:1008D00020F0F80040EAC10028600DE0C6F8008072
:1008E000FFF7FAFD074604E0FFF7F6FDC01B0228FC
:1008F00023D828688007F7D4207800072CD57948BA
:10090000A169D9B1C0F80090FFF7E6FD074604E001
:10091000FFF7E2FDC01B02280FD8686A8007F7D5F1
:1009200071484FF4FA510068B0FBF1F0009000BF3D
:100930000098411E0091FAD20EE080E0C0F80080DD
:10094000FFF7CAFD074604E0FFF7C6FDC01B0228FB
:1009500075D8686A8007F7D42078400760D5E869C1
:100960000027C00008D4E86940F08050E861E869D9
:10097000012700F0805000905C480168C90513D43D
:100980000168834641F480710160FFF7A5FD82464E
:1009900006E000BFFFF7A0FDA0EB0A0064284ED8D8
:1009A000DBF80000C005F5D5E06801280AD008B1E1
:1009B000052813D0286A20F001002862286A20F058
:1009C000040002E0286A40F001002862E06841F279
:1009D000883B98B1FFF780FD82460BE0286A40F023
:1009E00004002862EEE700BFFFF776FDA0EB0A01E6
:1009F00059455AD8286A8007F6D50CE0FFF76CFDF8
:100A0000824605E0FFF768FDA0EB0A0159454CD886
:100A1000286A8007F6D41FB1E86920F08050E861A9
:100A2000E06988B36968C1F38101022944D00228D2
:100A3000C6F8608004D0FFF74FFD044638E034E08C
:100A4000FFF74AFD074604E0FFF746FDC01B0228FA
:100A50002BD828688001F7D4206AB0F5803F05D1F3
:100A60006868A16820F4003008436860D4E9080190
:100A70000843696821F4741108436860C6F86090FF
:100A8000FFF72AFD044606E025E000BFFFF724FD3E
:100A9000001B022809D828688001F7D51BE000BF99
:100AA000FFF71AFD001B022802D90320BDE8F88FCA
:100AB00028688001F4D40EE00128F7D06868226A23
:100AC00000F48031914204D1616A00F470108842D0
:100AD00001D00120EAE70020E8E700000010024012
:100AE00000004242800442421C000020007000408E
:100AF00010B5401EB0F1807F01D3012010BD4FF032
:100B0000E02460610F21601700F08BF90020A061E4
:100B100007202061002010BD70B5040004D094F8B7
:100B20003D00002510B106E0012070BD84F83C5066
:100B3000204600F023F8242084F83D002068C16896
:100B400021F40051C160204600F0DCF82068016902
:100B500021F4904101612068416921F02A0141613D
:100B60002068C16841F40051C1602564202084F8E8
:100B70003D0084F83E00002070BD000030B585B017
:100B8000002400940194029403940068144988425C
:100B900023D11448C16941F40031C161C16901F434
:100BA00000310491816941F00401816180690E4D39
:100BB00000F0040004900420009002200190032023
:100BC000039069462846FFF797FB0820CDE900040B
:100BD000694628460294FFF78FFB05B030BD000040
:100BE0000044004000100240000801402DE9F84395
:100BF000044690F83D001F4616460D4620284CD16D
:100C0000C5B1BEB194F83C00012846D0012084F85B
:100C10003C004FF00008C4F84080212084F83D00DB
:100C2000FFF75AFCA6848146E684A068B0F5805F91
:100C300003D004E00120BDE8F883206928B12E46E6
:100C40005FF0000584F83C800EE00026FAE7802182
:100C5000204600F0B3F8A0B9AEB116F8010B216838
:100C60004860E08C401EE084E08C4B464FF0000270
:100C700000970028EBD14FF04001204600F09EF88D
:100C800030B10320D7E735F8020BC0F30800E6E7E0
:100C9000202084F83D000020CDE70220CBE7FEE7CE
:100CA000FEE7FEE770477047FFF71CBC10B590B039
:100CB00028216846FFF7A7FA14210AA8FFF7A3FA2C
:100CC0000220009001200490102000240590079439
:100CD0006846FFF77DFD08B172B6FEE70F20CDE94B
:100CE0000A044FF48060CDE90C4000210AA80E945C
:100CF000FFF782FC002801D072B6FEE710B010BDED
:100D00007047000070B5044600680169E26821F48C
:100D10004051114301612169A0680843616908439A
:100D20002168CA6841F20C639A430243CA60206892
:100D30004169A26921F44071114341611E49206853
:100D4000884202D1FFF7FEFC01E0FFF7EBFC00EB6D
:100D5000C00101EB0012606864218000B2FBF0F377
:100D6000B3FBF1F36FF018067343B2FBF0F5B2FB7F
:100D7000F0F605EB8305322303EB0515B5FBF1F522
:100D8000B6FBF1F605F0F00505EB0615B2FBF0F643
:100D9000B2FBF0F0B0FBF1F06FF01802504306EB3D
:100DA000800003EB0010B0FBF1F0216800F00F00B1
:100DB0002844886070BD0000003801402DE9F041F2
:100DC000984617460E460446069D1DE0681C1BD03B
:100DD0002DB1FFF781FBA0EB0800A84214D92068D1
:100DE000C16821F4D071C1602068416921F001011E
:100DF0004161202084F83D0084F83E00002084F802
:100E00003C000320BDE8F0812068006836EA00005D
:100E100004D00020B842D9D00020F3E70120F9E740
:100E2000FEE70907090E002804DB00F1E02080F846
:100E30000014704700F00F0000F1E02080F8141D4E
:100E40007047000008B5FFF755FBFFF72FFF154867
:100E5000816941F0040181618069134900F0040057
:100E6000009012480C2201604FF4E13141600021F2
:100E70008160C160C0E904128161C161FFF74CFE6D
:100E800008B172B6FEE74FF47A740948FFF79CF98F
:100E900082B2642306490548FFF7A8FE2046FFF703
:100EA00019FAF2E700100240004400402000002040
:100EB0000000002000000000000000000102030408
:100EC000060708090000000001020304EC0E0008F8
:100ED0000000002020000000280100080C0F00087E
:100EE00020000020A8060000440100084F766F2073
:100EF0006A6520706F646174616B0D0A0100000007
:0C0F000010000000000000000024F400BD
:04000005080000ED02
:00000001FF
